:0400000084EF01F098
:100008004D82E9CF3EF0EACF3FF0F3CF40F0F4CF96
:1000180041F0F6CF42F0F7CF43F0F8CF44F0F5CFF8
:1000280045F09EAA1AEF00F01CEF00F062EF01F015
:10003800ABB421EF00F023EF00F02AEF00F0ABA201
:1000480028EF00F02AEF00F02DEF00F0AB82AB981C
:10005800AB8805EC07F0316E310EAE18D8A437EF37
:1000680000F039EF00F045EF00F00BEC07F0550E0B
:10007800356E3F0E366E000E386E100E376E3BEC46
:1000880005F0610EAE18D8A44CEF00F04EEF00F06A
:100098005EEF00F0C90E346E3E0E356E00EC07F0D0
:1000A8004BC035F04CC036F0000E386E100E376E6F
:1000B8003BEC05F0620EAE18D8A465EF00F067EFD0
:1000C80000F077EF00F07E0E346E3C0E356E00ECDB
:1000D80007F04BC035F04CC036F0000E386E100EED
:1000E800376E3BEC05F0630EAE18D8A47EEF00F037
:1000F80080EF00F090EF00F0BC0E346E3C0E356ED1
:1001080000EC07F04BC035F04CC036F0000E386EEE
:10011800100E376E3BEC05F0640EAE18D8A497EFBE
:1001280000F099EF00F0A9EF00F0DF0E346E3D0EFD
:10013800356E00EC07F04BC035F04CC036F0000EC1
:10014800386E100E376E3BEC05F0650EAE18D8A46D
:10015800B0EF00F0B2EF00F0C2EF00F0CF0E346E57
:100168003C0E356E00EC07F04BC035F04CC036F055
:10017800000E386E100E376E3BEC05F0660EAE18AA
:10018800D8A4C9EF00F0CBEF00F0DBEF00F0E20EEF
:10019800346E3C0E356E00EC07F04BC035F04CC0A9
:1001A80036F0000E386E100E376E3BEC05F0670E19
:1001B800AE18D8A4E2EF00F0E4EF00F0F4EF00F09E
:1001C800950E346E3C0E356E00EC07F04BC035F0E2
:1001D8004CC036F0000E386E100E376E3BEC05F052
:1001E800410EAE18D8A4FBEF00F0FDEF00F00DEFC4
:1001F80001F0E80E346E3F0E356E00EC07F04BC090
:1002080035F04CC036F0000E386E100E376E3BECF1
:1002180005F0420EAE18D8A414EF01F016EF01F065
:1002280026EF01F0680E346E3F0E356E00EC07F0D5
:100238004BC035F04CC036F0000E386E100E376EDD
:100248003BEC05F0700EAE18D8A42DEF01F02FEF9F
:1002580001F061EF01F0E30E346E3F0E356E00ECF5
:1002680007F0DE0E356E3F0E366E000E386E100E3D
:10027800376E3BEC05F0000E3B6E000E3A6E86ECD6
:1002880006F0000E3B6E000E3A6E73EC06F0000EA0
:100298003B6E000E3A6E60EC06F0000E3B6E000EF0
:1002A8003A6E4DEC06F04BC035F04CC036F0000EFF
:1002B800386E100E376E3BEC05F09E9AF2A467EF8D
:1002C80001F069EF01F072EF01F0630ED66E010ED6
:1002D8002B26000E2C222D222E22F29445C0F5FF4B
:1002E80044C0F8FF43C0F7FF42C0F6FF41C0F4FF27
:1002F80040C0F3FF3FC0EAFF3EC0E9FF4D92110046
:10030800BBEF05F080B68BEF01F08DEF01F0C9EF80
:1003180001F080A492EF01F094EF01F0C9EF01F031
:1003280082A499EF01F09BEF01F0C9EF01F080A2E0
:10033800A0EF01F0A2EF01F0C9EF01F080A8A7EF4C
:1003480001F0A9EF01F0C9EF01F0650E0001666F39
:10035800000E686F3C0E676F740E6CEC04F0640E50
:100368000001666F000E686F3C0E676F660E6CECDE
:1003780004F0C40E476E3F0E486E000E4A6E100E13
:10038800496ED5EC04F0EDEF03F080A6CEEF01F056
:10039800D0EF01F00CEF02F080A4D5EF01F0D7EF19
:1003A80001F00CEF02F082B4DCEF01F0DEEF01F0B7
:1003B8000CEF02F080A2E3EF01F0E5EF01F00CEFA3
:1003C80002F080A8EAEF01F0ECEF01F00CEF02F088
:1003D800650E0001666F000E686F640E676F660E2B
:1003E8006CEC04F0640E0001666F000E686F640E1A
:1003F800676F660E6CEC04F0B80E476E3F0E486EE1
:10040800000E4A6E100E496ED5EC04F0EDEF03F0C5
:1004180080A611EF02F013EF02F04FEF02F080B464
:1004280018EF02F01AEF02F04FEF02F082A41FEF6C
:1004380002F021EF02F04FEF02F080B226EF02F057
:1004480028EF02F04FEF02F080A82DEF02F02FEF17
:1004580002F04FEF02F0650E0001666F000E686F44
:10046800640E676F660E6CEC04F0640E0001666F34
:10047800000E686F640E676F660E6CEC04F0030E76
:10048800476E3D0E486E000E4A6E100E496ED5EC52
:1004980004F0EDEF03F080A654EF02F056EF02F0FF
:1004A80092EF02F080B45BEF02F05DEF02F092EFA2
:1004B80002F082B462EF02F064EF02F092EF02F011
:1004C80080B269EF02F06BEF02F092EF02F080A8C1
:1004D80070EF02F072EF02F092EF02F0650E000189
:1004E800666F000E686F640E676F660E6CEC04F042
:1004F800640E0001666F000E686F640E676F660E0B
:100508006CEC04F04B0E476E3F0E486E000E4A6EC0
:10051800100E496ED5EC04F0EDEF03F080A697EFCE
:1005280002F099EF02F0D5EF02F080A49EEF02F0FE
:10053800A0EF02F0D5EF02F082A4A5EF02F0A7EF3A
:1005480002F0D5EF02F080B2ACEF02F0AEEF02F0AD
:10055800D5EF02F080A8B3EF02F0B5EF02F0D5EFC7
:1005680002F0650E0001666F000E686F3C0E676F43
:10057800660E6CEC04F0640E0001666F000E686F86
:100588003C0E676F740E6CEC04F0790E476E3F0EEC
:10059800486E000E4A6E100E496ED5EC04F0EDEF71
:1005A80003F080A6DAEF02F0DCEF02F018EF03F0B8
:1005B80080A4E1EF02F0E3EF02F018EF03F082B459
:1005C800E8EF02F0EAEF02F018EF03F080B2EFEF85
:1005D80002F0F1EF02F018EF03F080A8F6EF02F056
:1005E800F8EF02F018EF03F0650E0001666F000ED9
:1005F800686F3C0E676F660E6CEC04F0640E0001C9
:10060800666F000E686F3C0E676F740E6CEC04F03A
:10061800F30E476E3C0E486E000E4A6E100E496E81
:10062800D5EC04F0EDEF03F080A61DEF03F01FEF0B
:1006380003F05BEF03F080B424EF03F026EF03F040
:100648005BEF03F082A42BEF03F02DEF03F05BEFD9
:1006580003F080A232EF03F034EF03F05BEF03F016
:1006680080A839EF03F03BEF03F05BEF03F0650E72
:100678000001666F000E686F3C0E676F740E6CECBD
:1006880004F0640E0001666F000E686F3C0E676F21
:10069800660E6CEC04F0810E476E3F0E486E000E3D
:1006A8004A6E100E496ED5EC04F0EDEF03F080A60B
:1006B80060EF03F062EF03F09EEF03F080B467EFA2
:1006C80003F069EF03F09EEF03F082B46EEF03F0DE
:1006D80070EF03F09EEF03F080A275EF03F077EF61
:1006E80003F09EEF03F080A87CEF03F07EEF03F0A9
:1006F8009EEF03F0650E0001666F000E686F3C0EFA
:10070800676F740E6CEC04F0640E0001666F000EE7
:10071800686F3C0E676F660E6CEC04F0A30E476EB4
:100728003D0E486E000E4A6E100E496ED5EC04F070
:10073800EDEF03F080A6A3EF03F0A5EF03F0E1EFE0
:1007480003F080A4AAEF03F0ACEF03F0E1EF03F0AD
:1007580082A4B1EF03F0B3EF03F0E1EF03F080A25E
:10076800B8EF03F0BAEF03F0E1EF03F080B8BFEFA2
:1007780003F0C1EF03F0E1EF03F0650E0001666FCF
:10078800000E686F3C0E676F660E6CEC04F0640E2A
:100798000001666F000E686F3C0E676F740E6CEC9C
:1007A80004F0970E476E3F0E486E000E4A6E100E0C
:1007B800496ED5EC04F0EDEF03F09EEC05F0D90E90
:1007C800476E3F0E486E000E4A6E100E496ED5EC0D
:1007D80004F082B8F2EF03F0F4EF03F000EF04F056
:1007E8009EEC05F0710E476E3F0E486E000E4A6E85
:1007F800100E496ED5EC04F01200820E0001696FEC
:10080800DD0EE82EFED7692FFCD700F000F0D4ECFF
:1008180005F0F28EF28CF28A0EEC07F0D0EC06F0BE
:10082800ACEC06F0BEEC06F009EC07F0000E476EE3
:10083800630E466EFBEC06F0FD0E4B6E3F0E4C6EE3
:100848003DEF04F0BC0E476E3E0E486E000E4A6E39
:10085800100E496ED5EC04F00D0E00016A6FAF0E54
:10086800696FB60EE82EFED7692FFCD76A2FFAD724
:1008780000F082A842EF04F044EF04F026EF04F001
:1008880086EC01F061EF04F09EEC05F0890E476EEE
:100898003F0E486E000E4A6E100E496ED5EC04F0FD
:1008A8000D0E00016A6FAF0E696FB60EE82EFED707
:1008B800692FFCD76A2FFAD700F082A866EF04F0F8
:1008C80068EF04F048EF04F044EF04F084EF01F01F
:1008D8004A6E818C818E660E4A18D8A476EF04F091
:1008E80078EF04F0A8EF04F0640E00016619D8A4AC
:1008F80080EF04F082EF04F08FEF04F067C062F03D
:1009080068C063F025EC06F0000E0001636F000E6E
:10091800626FE9EC05F0650E00016619D8A497EF3F
:1009280004F099EF04F0D4EF04F067C062F068C0F7
:1009380063F011EC06F0000E0001636F000E626FA9
:10094800FDEC05F0D4EF04F0640E00016619D8A49C
:10095800B0EF04F0B2EF04F0BEEF04F0000E636FE6
:10096800000E626F25EC06F067C062F068C063F0A5
:10097800E9EC05F0650E00016619D8A4C6EF04F08D
:10098800C8EF04F0D4EF04F0000E636F000E626F3E
:1009980011EC06F067C062F068C063F0FDEC05F08A
:1009A8001200000E0001636F000E626F000E636F8D
:1009B800000E626F4ABEEBEF04F04A5006E14904AC
:1009C800D8B0E9EF04F0EBEF04F0EDEF04F03AEF04
:1009D80005F062514724606F63514820616F60C021
:1009E800F6FF61C0F7FFF86A020EF76403D008004B
:1009F800F55005D0F6CFE9FFF7CFEAFFEF50000931
:100A0800D8A409EF05F00BEF05F00DEF05F03AEF6C
:100A180005F0000162514724606F63514820616FFF
:100A280060C0F6FF61C0F7FFF86A020EF76403D0F2
:100A38000800F55005D0F6CFE9FFF7CFEAFFEF50F1
:100A4800EFEC06F0DFEC06F00001624B632B495037
:100A5800625D6351800A606F4A50800A6059D8A06D
:100A680038EF05F03AEF05F0EDEF04F01200000E54
:100A78003C6E000E3B6E000E3C6E000E3B6E38BEA8
:100A880050EF05F0385006E13704D8B04EEF05F0C6
:100A980050EF05F052EF05F09DEF05F03B5035247F
:100AA800396E3C5036203A6E39C0F6FF3AC0F7FF2F
:100AB800F86A020EF76403D00800F55005D0F6CFA7
:100AC800E9FFF7CFEAFFEF500009D8A46EEF05F071
:100AD80070EF05F072EF05F09DEF05F03B503524FF
:100AE800396E3C5036203A6E39C0F6FF3AC0F7FFEF
:100AF800F86A020EF76403D00800F55005D0F6CF67
:100B0800E9FFF7CFEAFFEF50F5EC06F0E7EC06F067
:100B18003B4A3C2A37503B5C3C50800A396E38507F
:100B2800800A3958D8A09BEF05F09DEF05F052EFE9
:100B380005F01200000E0001636F000E626F25ECD5
:100B480006F0000E0001636F000E626F11EC06F0F4
:100B5800000E0001636F000E626FFDEC05F0000EE1
:100B68000001636F000E626FE9EC05F012001A0EC7
:100B7800F66E0E0EF76E000EF86E0900F5CF4BF00C
:100B88000900F5CF4CF000EE01F0330EEE6AE806EE
:100B9800FDE14D904D92000EF86E000101EF04F05A
:100BA8009268000E936E9468000E956E070E966E0E
:100BB800600EB86E000EB96E8068000E816E826895
:100BC800000E836E000E846E120062C046F063C091
:100BD80047F0000E496E060E486E39EC06F046C026
:100BE80064F047C065F064C073FF00016551726E20
:100BF800120062C046F063C047F0000E496E060E50
:100C0800486E39EC06F046C064F047C065F064C031
:100C180075FF00016551746E120062C046F063C032
:100C280047F0000E496E060E486E39EC06F046C0D5
:100C380064F047C065F064C077FF00016551766EC7
:100C4800120062C046F063C047F0000E496E060EFF
:100C5800486E39EC06F046C064F047C065F064C0E1
:100C680079FF00016551786E120046504802F3CFB3
:100C780060F0F4CF61F046504902F350000161275B
:100C880047504802F350612760C046F061C047F002
:100C980012003AC034F03BC035F0000E376E060E35
:100CA800366E99EC06F034C03CF035C03DF03CC0DF
:100CB80073FF3D50726E12003AC034F03BC035F0FD
:100CC800000E376E060E366E99EC06F034C03CF016
:100CD80035C03DF03CC075FF3D50746E12003AC0FF
:100CE80034F03BC035F0000E376E060E366E99ECC8
:100CF80006F034C03CF035C03DF03CC077FF3D50B5
:100D0800766E12003AC034F03BC035F0000E376EF4
:100D1800060E366E99EC06F034C03CF035C03DF056
:100D28003CC079FF3D50786E120034503602F3CF44
:100D380038F0F4CF39F034503702F35039263550B3
:100D48003602F350392638C034F039C035F0120075
:100D5800000E7F6E800E7E6E5F0E6F6E010E6E6EE1
:100D6800100E6D6E6B68000E6A6E960E7B6E000E2E
:100D78007A6E1200C19CC19EC29AC298F30EC21626
:100D8800C08EC050870B3009C06EC050F80B0509E3
:100D9800C06E000E9A6E1200810EAF6EAC84AC98D5
:100DA800AC9CAC8A9D98AB8EAB9CAB88949C948E83
:100DB8009E9A9D8A1200ACA2E4EF06F0E6EF06F0D8
:100DC800DFEF06F01200ACA2ECEF06F0EEEF06F053
:100DD800E7EF06F01200466E46C0ADFFDFEC06F006
:100DE8001200346E34C0ADFFE7EC06F01200D40EEA
:100DF800D56E46C0D6FF120034C04BF035C04CF05B
:100E08001200AECF34F034501200D58E1200D58EB9
:060E18001200FE3F120073
:103C6400002D2D2D2D2D2D2D2D2D2D2D2D2D2D2DAD
:103C74002D2D2D2D2D2D2D2D0A0074657374655356
:103C8400656E736F72657344697374616E636961A1
:103C940000746573746544697374616E6369614D1E
:103CA4006F746F72000A2D2D2D2D2D2D2D2D2D2D80
:103CB4002D2D2D2D2D2D0A00746573746553656E9D
:103CC400736F7265734C696E6861007465737465B3
:103CD40053656E736F724469676974616C007465CF
:103CE4007374654D6F64756C6F5374617274000AFC
:103CF40053445F464320652053445F46440A000A08
:103D040053445F464520652053445F46440A0050AF
:103D1400574D41206520422074657374650A005034
:103D2400574D44206520422074657374650A005021
:103D3400574D41206520432074657374650A005013
:103D4400574D44206520432074657374650A005000
:103D5400574D412074657374652066696D0A00507F
:103D6400574D422074657374652066696D0A00506E
:103D7400574D432074657374652066696D0A00505D
:103D8400574D442074657374652066696D0A00504C
:103D9400574D2066696E616C697A61646F0A000A26
:103DA40053445F464520652053445F430A005057FF
:103DB4004D412074657374616E646F0A0050574DF1
:103DC400422074657374616E646F0A0050574D44E9
:103DD4002074657374616E646F0A006D6F7665722A
:103DE4005072614672656E7465000A53445F4320E5
:103DF400652053445F46446E000A2D2D2D2D2D2D34
:103E04002D2D2D2D2D0A000A20535F46443D666159
:103E14006C73650A000A20535F43453D66616C7309
:103E2400650A000A20535F46453D66616C73650A66
:103E34000050574D41206520422066696D0A0050AC
:103E4400574D44206520422066696D0A0050574D45
:103E540041206520432066696D0A0050574D442077
:103E64006520432066696D0A000A53445F46452075
:103E7400652053445F43000A20535F443D66616CF0
:103E840073650A000A20535F453D66616C73650AD9
:103E9400000A20535F46443D747275650A000A2087
:103EA400535F43453D747275650A000A20535F46AB
:103EB400453D747275650A004573706572616E6480
:103EC4006F2E2E2E0074657374654D6F746F72655A
:103ED40073000A2D2D2D2D2D2D2D2D2D0A000A4672
:103EE400443A6272616E63610A000A46453A62723C
:103EF400616E63610A0050574D43207465737465A5
:103F04000A000A20535F443D747275650A000A2052
:103F1400535F453D747275650A000A50574D412040
:103F24006520420A20000A46443A707265746F0A9A
:103F3400000A46453A707265746F0A002D2D2D2DC6
:103F44002D2D2D2D2D2D000A464520432046440AB3
:103F54000054696D657230206F6E000A56616C6F93
:103F6400723A0A00746F7175696E686F000A466967
:103F74006D2E2E0A000A53445F46440A000A534435
:103F84005F46450A000A46696D210A000A53445FE8
:103F9400430A000A53445F440A000A53445F450A33
:103FA400000A53445F464500414E353A2000414ED5
:103FB400363A20000A53445F43000A53445F4400E6
:103FC4000A53445F45000A46440A000A46450A006B
:103FD4000A534E0A000A4E530A0049444C450069EC
:103FE400646C65006172636F000A430A000A440A44
:0C3FF400000A450A000A4E5300000000BD
:020000040020DA
:08000000FFFFFFFFFFFFFFFF00
:020000040030CA
:0E000000FFC20D3E3C1D81FF0FC00FE00F4000
:00000001FF
